:100000005CC000007FC000007DC000007BC000001D
:1000100079C0000077C0000075C0000073C0000008
:1000200071C000006FC000006DC000006BC0000018
:1000300069C0000067C0000065C0000063C0000028
:10004000C1C200005FC00000BEC10000EEC10000E0
:1000500059C0000057C0000055C0000053C0000048
:1000600051C000004FC00000000000080002010065
:100070000003040700000000000000000102040863
:100080001020408001020408102001020408102002
:10009000040404040404040402020202020203032E
:1000A0000303030300000000250028002B000000CC
:1000B0000000240027002A00430211241FBECFEFB6
:1000C000D8E0DEBFCDBF11E0A0E0B1E0E2EEF8E0A5
:1000D00002C005900D92AC32B107D9F721E0ACE235
:1000E000B1E001C01D92A23DB207E1F710E0CAEBFA
:1000F000D0E003C02297FE01EED3C83BD107D1F771
:1001000057D2EDC37DCF26E040E855E260E070E0D5
:100110008CE291E0F8D061E08DE04AC360E071E0EC
:100120008CE291E034D261E08DE07BD368EE73E045
:1001300080E090E0B4D260E08DE073D368EE73E0CD
:1001400080E090E0ACC2FC01818D228D90E0805C6B
:100150009F4F821B91098F7399270895FC01918D00
:10016000828D981731F0828DE80FF11D858D90E01A
:1001700008958FEF9FEF0895FC01918D828D981760
:1001800061F0828DDF01A80FB11D5D968C91928D7B
:100190009F5F9F73928F90E008958FEF9FEF089578
:1001A0008AE392E0892B41F080E090E0892B21F0F6
:1001B00061D181110C9400000895FC01848DDF0150
:1001C000A80FB11DA35ABF4F2C91848D90E00196CA
:1001D0008F739927848FA689B7892C93A089B189B9
:1001E0008C9180648C93938D848D981306C00288C3
:1001F000F389E02D80818F7D80830895CF93DF93F5
:10020000EC01888D8823C1F0EA89FB89808185FD16
:1002100005C0A889B9898C9186FD0EC00FB607FC70
:10022000F5CF808185FFF2CFA889B9898C9185FFB0
:10023000EDCFCE01C2DFE8CFDF91CF910895CF920D
:10024000DF92FF920F931F93CF93DF931F92CDB74F
:10025000DEB76C0181E0D60158968C9358975B9677
:100260009C915B975C968C915C97981307C0509615
:10027000ED91FC915197808185FD2DC0F601038D94
:1002800010E00F5F1F4F0F731127F02EF601848DC2
:10029000F81210C00FB607FCF9CFD6015096ED91B9
:1002A000FC915197808185FFF1CFC601698385DF7D
:1002B0006981ECCF838DE80FF11DE35AFF4F608316
:1002C000D6015B960C935B975296ED91FC915397F8
:1002D000808180620CC0D6015696ED91FC915797B3
:1002E00060835096ED91FC9151978081806480836A
:1002F00081E090E00F90DF91CF911F910F91FF90DF
:10030000DF90CF900895BF92CF92DF92EF92FF924D
:10031000CF93DF93EC016A017B01B22EE889F98962
:1003200082E08083411581EE58076105710599F0DF
:1003300060E079E08DE390E0A7019601A8D221501A
:10034000310941095109569547953795279521154A
:1003500080E1380790F0E889F989108260E874E854
:100360008EE190E0A701960192D221503109410916
:1003700051095695479537952795EC85FD8530832E
:10038000EE85FF852083188EEC89FD89B082EA898D
:10039000FB89808180618083EA89FB898081886014
:1003A0008083EA89FB89808180688083EA89FB8970
:1003B00080818F7D8083DF91CF91FF90EF90DF90E0
:1003C000CF90BF9008951F920F920FB60F921124F5
:1003D0002F938F939F93EF93FF93E0913C01F091C4
:1003E0003D018081E0914201F091430182FD12C004
:1003F0009081809145018F5F8F7320914601821714
:1004000051F0E0914501F0E0E45DFE4F958F80935F
:10041000450101C08081FF91EF919F918F912F91B4
:100420000F900FBE0F901F9018951F920F920FB64E
:100430000F9211242F933F934F935F936F937F936A
:100440008F939F93AF93BF93EF93FF938CE291E0D1
:10045000B4DEFF91EF91BF91AF919F918F917F910A
:100460006F915F914F913F912F910F900FBE0F9021
:100470001F9018958CE291E066DE21E0892B09F44B
:1004800020E0822F089510922F0110922E0188EE05
:1004900093E0A0E0B0E08093300190933101A0930D
:1004A0003201B09333018FE091E090932D0180935E
:1004B0002C0185EC90E0909339018093380184EC15
:1004C00090E090933B0180933A0180EC90E0909310
:1004D0003D0180933C0181EC90E090933F0180933B
:1004E0003E0182EC90E0909341018093400186ECC4
:1004F00090E0909343018093420110924501109245
:10050000460110924701109248010895CF92DF9260
:10051000EF92FF920F931F93CF93DF937C016A01B9
:10052000EB0100E010E00C151D0571F06991D70199
:10053000ED91FC910190F081E02DC7010995892B87
:1005400019F00F5F1F4FEFCFC801DF91CF911F91BF
:100550000F91FF90EF90DF90CF9008956115710596
:1005600081F0DB010D900020E9F7AD014150510908
:10057000461B570BDC01ED91FC910280F381E02DCD
:10058000099480E090E008956BE171E0E7CF0F936C
:100590001F93CF93DF93EC01E1DF8C01CE01F4DFF9
:1005A000800F911FDF91CF911F910F9108950895B2
:1005B0009BD0FDDFA8DDC0EDD0E0B0DD2097E9F3F2
:1005C000EFDDFBCF1F920F920FB60F9211242F93E6
:1005D0003F938F939F93AF93BF938091CA01909164
:1005E000CB01A091CC01B091CD013091C90123E0A4
:1005F000230F2D3720F40196A11DB11D05C026E85B
:10060000230F0296A11DB11D2093C9018093CA0139
:100610009093CB01A093CC01B093CD018091CE01FA
:100620009091CF01A091D001B091D1010196A11D6F
:10063000B11D8093CE019093CF01A093D001B093D0
:10064000D101BF91AF919F918F913F912F910F90C9
:100650000FBE0F901F9018953FB7F8948091CE0170
:100660009091CF01A091D001B091D10126B5A89B66
:1006700005C02F3F19F00196A11DB11D3FBF662790
:10068000782F892F9A2F620F711D811D911D42E0D5
:10069000660F771F881F991F4A95D1F70895CF924B
:1006A000DF92EF92FF92CF93DF936B017C01D4DF57
:1006B000EB01C114D104E104F10479F0E7D0CCDFFF
:1006C0006C1B7D0B683E7340A0F381E0C81AD10813
:1006D000E108F108C851DC4FECCFDF91CF91FF90DA
:1006E000EF90DF90CF900895789484B5826084BDB8
:1006F00084B5816084BD85B5826085BD85B5816026
:1007000085BDEEE6F0E0808181608083E1E8F0E085
:100710001082808182608083808181608083E0E8B4
:10072000F0E0808181608083E1EBF0E08081846093
:100730008083E0EBF0E0808181608083EAE7F0E095
:1007400080818460808380818260808380818160F9
:1007500080838081806880831092C10008958330F7
:1007600081F028F4813099F08230A1F0089587302B
:10077000A9F08830B9F08430D1F4809180008F7D69
:1007800003C0809180008F7780938000089584B5A6
:100790008F7702C084B58F7D84BD08958091B000AD
:1007A0008F7703C08091B0008F7D8093B000089553
:1007B000CF93DF9390E0FC01E458FF4F2491FC01BC
:1007C000E057FF4F8491882349F190E0880F991FEB
:1007D000FC01E255FF4FA591B4918C559F4FFC0150
:1007E000C591D4919FB7611108C0F8948C91209560
:1007F00082238C93888182230AC0623051F4F8945A
:100800008C91322F309583238C938881822B88831F
:1008100004C0F8948C91822B8C939FBFDF91CF9171
:1008200008950F931F93CF93DF931F92CDB7DEB739
:10083000282F30E0F901E859FF4F8491F901E4587D
:10084000FF4F1491F901E057FF4F04910023C1F0CD
:10085000882319F0698383DF6981E02FF0E0EE0FD0
:10086000FF1FEC55FF4FA591B4919FB7F8948C9161
:10087000611103C01095812301C0812B8C939FBF10
:100880000F90DF91CF911F910F9108950895A1E2EC
:100890001A2EAA1BBB1BFD010DC0AA1FBB1FEE1FFA
:1008A000FF1FA217B307E407F50720F0A21BB30B45
:1008B000E40BF50B661F771F881F991F1A9469F7C1
:1008C00060957095809590959B01AC01BD01CF011D
:1008D0000895EE0FFF1F0590F491E02D0994F89410
:0208E000FFCF48
:1008E20048656C6C6F204475646500000000001F51
:1008F200018602A300BC00AE00FE000D0A006E617C
:0C0902006E00696E66006F7666002E00C5
:00000001FF
