:1000000066C000008BC0000089C0000087C00000EF
:1000100085C0000083C0000081C000007FC00000D8
:100020007DC000007BC0000079C0000077C00000E8
:1000300075C0000073C0000071C000006FC00000F8
:1000400002C400006BC0000044C2000074C2000083
:1000500065C0000063C0000061C000005FC0000018
:100060005DC000005BC000001112131415160A0BCE
:100070000C0D0E0F00010203040500000008000231
:10008000010000030407000000000000000001025E
:100090000408102040800102040810200102040816
:1000A00010200404040404040404020202020202F4
:1000B00003030303030300000000250028002B00B6
:1000C00000000000240027002A002401C902112496
:1000D0001FBECFEFD8E0DEBFCDBF11E0A0E0B1E0A2
:1000E000EEEDF2E102C005900D92AE34B107D9F702
:1000F00022E0AEE4B1E001C01D92A531B207E1F704
:1001000010E0CEECD0E004C02297FE010E9460090E
:10011000CA3CD107C9F78DD30C946D0971CF26E085
:1001200040E855E260E070E08EE691E072D168EE62
:1001300073E080E090E0F4D360E071E08EE691E05F
:10014000B3D28EE591E07DD761E08EE591E099C56F
:10015000EF92FF920F931F93CF93DF9385E5E82EE5
:1001600094E4F92E03E312E221E130E040E050E0B4
:1001700061E08EE591E067D68EE591E0EAD68EE506
:1001800091E01CD68823A1F048E06EE471E08EE592
:1001900091E017D6CEE4D1E081E0CE35D80769F002
:1001A000699179914AE050E08EE691E02BD3F4CF4B
:1001B00060E171E08EE691E077D28EE591E0DF912B
:1001C000CF911F910F91FF90EF9061C50F931F93F7
:1001D00063E271E08EE691E067D205E514E423E383
:1001E00032E241E150E060E070E08EE591E0F3D56D
:1001F00084E690E0909357018093560188EC90E05C
:1002000090935901809358018CE291E090935B01A7
:1002100080935A0180E991E090935D0180935C01A5
:1002200048E066E571E08EE591E01F910F91A8C569
:100230008FDF68EE73E080E090E072D3C7DF68EE96
:1002400073E080E090E06CC34AE069E08EE591E005
:100250000DC5FC01818D228D90E0805C9F4F821B3B
:1002600091098F7399270895FC01918D828D9817BC
:1002700031F0828DE80FF11D858D90E008958FEFAC
:100280009FEF0895FC01918D828D981761F0828D0A
:10029000DF01A80FB11D5D968C91928D9F5F9F73BA
:1002A000928F90E008958FEF9FEF089580EC92E099
:1002B000892B41F080E090E0892B21F061D1811100
:1002C0000C9400000895FC01848DDF01A80FB11D7E
:1002D000A35ABF4F2C91848D90E001968F7399277C
:1002E000848FA689B7892C93A089B1898C91806469
:1002F0008C93938D848D981306C00288F389E02D2A
:1003000080818F7D80830895CF93DF93EC01888D6A
:100310008823C1F0EA89FB89808185FD05C0A88911
:10032000B9898C9186FD0EC00FB607FCF5CF808190
:1003300085FFF2CFA889B9898C9185FFEDCFCE01D9
:10034000C2DFE8CFDF91CF910895CF92DF92FF9285
:100350000F931F93CF93DF931F92CDB7DEB76C013E
:1003600081E0D60158968C9358975B969C915B9749
:100370005C968C915C97981307C05096ED91FC9118
:100380005197808185FD2DC0F601038D10E00F5F30
:100390001F4F0F731127F02EF601848DF81210C035
:1003A0000FB607FCF9CFD6015096ED91FC9151970D
:1003B000808185FFF1CFC601698385DF6981ECCF3C
:1003C000838DE80FF11DE35AFF4F6083D6015B96E2
:1003D0000C935B975296ED91FC91539780818062CC
:1003E0000CC0D6015696ED91FC91579760835096BC
:1003F000ED91FC91519780818064808381E090E051
:100400000F90DF91CF911F910F91FF90DF90CF90D0
:100410000895BF92CF92DF92EF92FF92CF93DF9336
:10042000EC016A017B01B22EE889F98982E08083C0
:10043000411581EE58076105710599F060E079E09A
:100440008DE390E0A701960117D7215031094109AA
:1004500051095695479537952795211580E138071D
:1004600090F0E889F989108260E874E88EE190E004
:10047000A701960101D7215031094109510956952B
:10048000479537952795EC85FD853083EE85FF856B
:100490002083188EEC89FD89B082EA89FB898081EE
:1004A00080618083EA89FB89808188608083EA8912
:1004B000FB89808180688083EA89FB8980818F7DC8
:1004C0008083DF91CF91FF90EF90DF90CF90BF902E
:1004D00008951F920F920FB60F9211242F938F93AE
:1004E0009F93EF93FF93E0917E01F0917F018081D4
:1004F000E0918401F091850182FD12C0908180918C
:1005000087018F5F8F7320918801821751F0E091EE
:100510008701F0E0E259FE4F958F8093870101C07B
:100520008081FF91EF919F918F912F910F900FBE3E
:100530000F901F9018951F920F920FB60F921124D3
:100540002F933F934F935F936F937F938F939F93DB
:10055000AF93BF93EF93FF938EE691E0B4DEFF91EC
:10056000EF91BF91AF919F918F917F916F915F912B
:100570004F913F912F910F900FBE0F901F901895A4
:100580008EE691E066DE21E0892B09F420E0822FDF
:100590000895109271011092700188EE93E0A0E02E
:1005A000B0E08093720190937301A0937401B093B3
:1005B000750180E391E090936F0180936E0185EC6B
:1005C00090E090937B0180937A0184EC90E090938B
:1005D0007D0180937C0180EC90E090937F0180937B
:1005E0007E0181EC90E0909381018093800182EC08
:1005F00090E0909383018093820186EC90E0909349
:1006000085018093840110928701109288011092D5
:10061000890110928A010895CF92DF92EF92FF92A2
:100620000F931F93CF93DF937C016A01EB0100E0EE
:1006300010E00C151D0571F06991D701ED91FC9149
:100640000190F081E02DC7010995892B19F00F5F0A
:100650001F4FEFCFC801DF91CF911F910F91FF90F6
:10066000EF90DF90CF9008956115710581F0DB0167
:100670000D900020E9F7AD0141505109461B570B81
:10068000DC01ED91FC910280F381E02D099480E082
:1006900090E00895DC01ED91FC910190F081E02D56
:1006A00009946CE371E0E0CF0F931F93CF93DF9336
:1006B000EC01DADF8C01CE01F4DF800F911FDF91B6
:1006C000CF911F910F9108958F929F92AF92BF92F9
:1006D000CF92DF92EF92FF920F931F93CF93DF930E
:1006E000CDB7DEB7A1970FB6F894DEBF0FBECDBF72
:1006F0007C01C42EE52FCB01D22E19A221E02D15AD
:1007000010F02AE0D22E8E010F5D1F4F8D2C912C00
:10071000A12CB12C6C2D7E2FA5019401ADD58C2D73
:10072000D29E80191124015011098A3014F4805D81
:1007300001C0895CF801808321153105410551050F
:1007400021F0C22EE32FCA01E5CFB801C7018CDF2B
:10075000A1960FB6F894DEBF0FBECDBFDF91CF914B
:100760001F910F91FF90EF90DF90CF90BF90AF90CF
:100770009F908F900895CF92DF92EF92FF920F9308
:100780001F93CF93DF93EC016A017B0121153105A3
:1007900079F4E881F9810190F081E02D642FDF91F7
:1007A000CF911F910F91FF90EF90DF90CF90099420
:1007B0002A303105D9F477FF18C06DE26BDF8C0168
:1007C00044275527BA014C195D096E097F092AE0B3
:1007D000CE017ADF800F911FDF91CF911F910F9192
:1007E000FF90EF90DF90CF9008952AE0B701A60127
:1007F000CE01DF91CF911F910F91FF90EF90DF908D
:10080000CF9062CF0F931F93CF93DF93EC019A01A8
:10081000AB01662757FD6095762FADDF8C01CE01C9
:1008200040DF800F911FDF91CF911F910F910895AD
:100830000895A6D0FDDF73DCC6E5D1E0F9DC209792
:10084000E9F334DDFBCF1F920F920FB60F92112404
:100850002F933F938F939F93AF93BF9380910C02FD
:1008600090910D02A0910E02B0910F0230910B02F7
:1008700023E0230F2D3720F40196A11DB11D05C0E3
:1008800026E8230F0296A11DB11D20930B02809331
:100890000C0290930D02A0930E02B0930F02809170
:1008A000100290911102A0911202B09113020196D0
:1008B000A11DB11D8093100290931102A09312020A
:1008C000B0931302BF91AF919F918F913F912F9160
:1008D0000F900FBE0F901F9018953FB7F89480911E
:1008E000100290911102A0911202B091130226B54C
:1008F000A89B05C02F3F19F00196A11DB11D3FBF58
:100900006627782F892F9A2F620F711D811D911DE7
:1009100042E0660F771F881F991F4A95D1F7089507
:10092000CF92DF92EF92FF92CF93DF936B017C0126
:10093000D4DFEB01C114D104E104F10479F05BD000
:10094000CCDF6C1B7D0B683E7340A0F381E0C81ABE
:10095000D108E108F108C851DC4FECCFDF91CF910D
:10096000FF90EF90DF90CF9008958230910538F09E
:10097000880F991F880F991F05970197F1F7089520
:10098000789484B5826084BD84B5816084BD85B56A
:10099000826085BD85B5816085BDEEE6F0E0808131
:1009A00081608083E1E8F0E0108280818260808352
:1009B000808181608083E0E8F0E0808181608083D5
:1009C000E1EBF0E0808184608083E0EBF0E0808107
:1009D00081608083EAE7F0E08081846080838081A9
:1009E0008260808380818160808380818068808351
:1009F0001092C100089508958EBD00000DB407FE49
:100A0000FDCF8EB508952CB52F7D2CBD2CB5237F41
:100A10002CBD2CB52C7F2CBD2DB521602DBDFC012E
:100A20008181C3D385E090E0A0CFFC0180819181DA
:100A30008913BBC3089560E0E6CF61E0E4CFEF9295
:100A4000FF921F93CF93DF931F92CDB7DEB77C0148
:100A50006983F1DF6981862F8F71CEDF8FEFCCDF65
:100A6000182FC701EADF812F0F90DF91CF911F91DF
:100A7000FF90EF900895CF92DF92EF92FF920F9345
:100A80001F93CF93DF9300D01F92CDB7DEB78C01B9
:100A9000F22E4A835B836983CEDF6981862F8F7153
:100AA0008062AADFE82E4A81C42E5B81D52EF40E27
:100AB000FC1429F0F60181916F019EDFF9CFC80186
:100AC000BCDF8E2D0F900F900F90DF91CF911F9173
:100AD0000F91FF90EF90DF90CF900895EF92FF92EB
:100AE0001F93CF93DF9300D0CDB7DEB77C014A834D
:100AF0006983A1DF6981862F8F7180627DDF182F66
:100B00004A81842F79DFC70198DF812F0F900F90E2
:100B1000DF91CF911F91FF90EF900895AF92BF9218
:100B2000DF92EF92FF920F931F93CF93DF9300D04A
:100B30001F92CDB7DEB78C01FC01E380F42EE416E2
:100B400008F4FE2CF8018481811102C0EF1801C065
:100B5000E12CC80129836A837B836DDF2981822F81
:100B60004BDFD82E6A81A62E7B81B72EF60EFA14A3
:100B700029F0F50181915F013FDFF9CFEE2021F0EF
:100B800080E03ADFEA94FACFC80157DF8D2D0F904D
:100B90000F900F90DF91CF911F910F91FF90EF90E9
:100BA000DF90BF90AF900895AF92BF92DF92EF9227
:100BB000FF920F931F93CF93DF9300D0CDB7DEB793
:100BC0008C01FC01E380F42EE41608F4FE2CF801FD
:100BD0008481811102C0EF1801C0E12CC801698332
:100BE0007A8329DF81E608DFD82E6981A62E7A81F3
:100BF000B72EF60EFA1431F08FEFFEDEF501819379
:100C00005F01F8CFEE2021F08FEFF6DEEA94FACF05
:100C1000C80113DF8D2D0F900F90DF91CF911F91A1
:100C20000F91FF90EF90DF90BF90AF900895EF92FB
:100C3000FF921F93CF93DF931F92CDB7DEB77C0156
:100C40006983F9DE6981862FD7DE182FC701F5DEAB
:100C5000812F0F90DF91CF911F91FF90EF9008951A
:100C600062EEE5CF61EEE3CF6FEFE1CFFC01608391
:100C70004183128280E28383148285E08287158219
:100C80000895462F603808F04FE765E027CFCF93EF
:100C9000DF93EC0160E0C9DE8B859C8566DE6DE14B
:100CA000CE01CDDE81FF05C08B859C855EDECE0149
:100CB000D9DF60E0CE01C3DE482F4E7F60E0CE0179
:100CC0000DDF62E0CE01BBDEE4E7F0E0E49121E07D
:100CD00030E001C0220FEA95EAF7822B482F62E04C
:100CE000CE01DF91CF91FACECF93DF93EC0160E09C
:100CF000A6DE81FD0FC060E0CE01A1DE482F42607C
:100D000060E0CE01EBDE65E070E080E090E0DF9136
:100D1000CF9106CEDF91CF9108950F93CF93DF93BC
:100D2000EC01222311F020EB01C020EACE01F6DE17
:100D3000002331F061E0CE01DF91CF910F9175CEAC
:100D4000DF91CF910F9108950F93CF93DF93EC0133
:100D500001E0E3DFCE0188DF8073E1F360E0CE01E4
:100D600064DE40E767E0CE01B9DE84FF04C0CE0157
:100D700079DF80E001C081E0DF91CF910F9108958C
:100D800020E0E2CF0F931F93CF93DF938C01EB0111
:100D900067E155DE80FD0AC0209751F0C80164DF8D
:100DA00090E0959587958770888302C080E001C0A8
:100DB00081E0DF91CF911F910F91089560E070E085
:100DC000E1CFCF93DF93EC01EFDE40E767E0CE01A8
:100DD000DF91CF9183CEEF92FF920F931F93CF932A
:100DE000DF93CDB7DEB728970FB6F894DEBF0FBEFE
:100DF000CDBF7C0109831A832B833C834D835E83A3
:100E00006F837887FC012285AE014F5F5F4F6AE0F8
:100E100032DEF7012285AE014F5F5F4F60E1C7010F
:100E20002ADEF701438161E1C70158DE28960FB63B
:100E3000F894DEBF0FBECDBFDF91CF911F910F9110
:100E4000FF90EF900895BF92CF92DF92EF92FF92C2
:100E50000F931F93CF93DF93CDB7DEB728970FB6CD
:100E6000F894DEBF0FBECDBF6C01B62EE982FA82C8
:100E70000B831C832D833E834F835887611109C0E8
:100E8000FC01428550E0BE016F5F7F4F05961CD28A
:100E900007C0F6E0F61708F432C081E0681308C016
:100EA000EB2DF0E0E259FF4F6491F601228506C078
:100EB000E62FF0E0E259FF4F649121E0AE014F5F71
:100EC0005F4FC601D8DD0B2D10E0F801E859FF4F48
:100ED0006491F6014381C60101DE62E0C601AFDD27
:100EE000F801EC58FF4F049121E030E001C0220FDF
:100EF0000A95EAF7822B482F62E0C601EFDD2896BB
:100F00000FB6F894DEBF0FBECDBFDF91CF911F911A
:100F10000F91FF90EF90DF90CF90BF9008951F93B7
:100F2000CF93DF93EC01162F62E089DDE12FF0E033
:100F3000EC58FF4FE49141E050E001C0440FEA95C6
:100F4000EAF74095482362E0CE01DF91CF911F91EF
:100F5000C5CDCF93DF93EC01C7DE60E0CE016FDD3E
:100F6000482F416060E0CE01B9DD40E767E0CE0187
:100F7000B5DD61E0CE0159DD8D81882341F02A8500
:100F8000AE014B5F5F4F6AE0CE0175DD03C060E0EC
:100F9000CE01C5DF6DE1CE0152DD81FF04C0CE017F
:100FA000DF91CF915FCEDF91CF910895CF93DF9303
:100FB000EC0141DD80E520DD83E71EDDCE01DF9120
:100FC000CF913BCDEF92FF920F931F93CF93DF937F
:100FD0001F92CDB7DEB77C018B0166E030DD582F64
:100FE000577D0230110531F450620BE910E020E02A
:100FF00030E00DC00130110529F005E510E020E0DA
:1010000030E005C0586001E410E020E030E0F70176
:101010000387148725873687452F66E0C7015983E4
:101020005DDD66E0C7010BDD91E05981851390E03D
:10103000892F0F90DF91CF911F910F91FF90EF902B
:101040000895CF93DF93EC0188819981891711F07E
:1010500061E072D089819881981711F061E06CD0BD
:10106000D9D060E0CE01E1DC61E0CE01CCDC65E00E
:1010700070E080E090E054DC4CE060E0CE012EDDDA
:101080004FE564E0CE012ADD62E070E0CE019ADF38
:10109000882311F081E08A8360E070E0CE0192DF66
:1010A000CE0184DF40E06DE1CE0118DD40E06CE16F
:1010B000CE0114DD40E767E0CE0110DD6CE4CE0127
:1010C000E0DDCE01CDDDCE01CDDDCE010DDE60E077
:1010D000CE01B5DC482F4E7F60E0CE01FFDC80E022
:1010E000DF91CF910895833081F028F4813099F019
:1010F0008230A1F008958730A9F08830B9F08430AB
:10110000D1F4809180008F7D03C0809180008F7723
:1011100080938000089584B58F7702C084B58F7D59
:1011200084BD08958091B0008F7703C08091B00096
:101130008F7D8093B0000895CF93DF9390E0FC0102
:10114000E257FF4F2491FC01EE55FF4F8491882315
:1011500049F190E0880F991FFC01E054FF4FA591E1
:10116000B4918A549F4FFC01C591D4919FB76111EE
:1011700008C0F8948C91209582238C9388818223D7
:101180000AC0623051F4F8948C91322F3095832349
:101190008C938881822B888304C0F8948C91822B55
:1011A0008C939FBFDF91CF9108950F931F93CF939F
:1011B000DF931F92CDB7DEB7282F30E0F901E65854
:1011C000FF4F8491F901E257FF4F1491F901EE5559
:1011D000FF4F04910023C1F0882319F0698383DF56
:1011E0006981E02FF0E0EE0FFF1FEA54FF4FA59159
:1011F000B4919FB7F8948C91611103C0109581232D
:1012000001C0812B8C939FBF0F90DF91CF911F91D5
:101210000F910895CF93CFB7F89480911402811164
:1012200023C0ECEAF0E08491E8E9F0E09491E82F43
:10123000F0E0EE0FFF1FE054FF4FA591B4918C91A9
:10124000892319F461E08AE0B0DF61E08AE074DFAD
:101250008CB580618CBD8CB580648CBD61E08DE007
:101260006BDF61E08BE068DF809114028F5F809319
:101270001402CFBFCF910895A1E21A2EAA1BBB1B67
:10128000FD010DC0AA1FBB1FEE1FFF1FA217B30752
:10129000E407F50720F0A21BB30BE40BF50B661F68
:1012A000771F881F991F1A9469F76095709580952C
:1012B00090959B01AC01BD01CF010895EE0FFF1F7A
:1012C0000590F491E02D0994FB01DC0102C001902E
:0E12D0000D9241505040D8F70895F894FFCF8A
:1012DE0053746172742074686520726164696F0062
:1012EE004E6F20726164696F20617661696C616214
:1012FE006C65005472616E736D69740000000000BD
:10130E00A5010C0329014201340184010D0A006E6E
:0E131E00616E00696E66006F7666002E00003C
:00000001FF
